:100000000C9434000C943E000C943E000C943E0082
:100010000C943E000C943E000C943E000C943E0068
:100020000C943E000C943E000C943E000C943E0058
:100030000C943E000C943E000C943E000C943E0048
:100040000C943E000C943E000C943E000C943E0038
:100050000C943E000C943E000C943E000C943E0028
:100060000C943E000C943E0011241FBECFEFD4E050
:10007000DEBFCDBF0E947E000C94E1000C94000016
:1000800087B18C7F87B9ECE7F0E080818064808362
:10009000EAE7F0E0808185688083089590917C0094
:1000A000987F892B80937C0080917A008064809374
:1000B0007A0080917A0086FDFCCF80917800909143
:1000C0007900089588E68AB988E084B984B5816AA0
:1000D00084BD85B5826085BD18BC17BCE0EBF0E03F
:1000E0008081816A8083E1EBF0E08081826080839F
:1000F0001092B4001092B300089508950E94400039
:100100000E9462007894A8950FB6F894A895809103
:100110006000886180936000109260000FBEC1E0B3
:10012000D8E388ECD82E81E090E00E944E007C015C
:1001300082E090E00E944E008C0180E090E00E94FE
:100140004E005C0183E090E00E944E0024EFE21636
:1001500021E0F206B0F4043F31E0130768F46FEFDA
:1001600070E08FEF90E00E947D0083EC99E00197B2
:10017000F1F700C00000D7CF20E9E21621E0F20637
:10018000E0F030E9A31631E0B306B8F000391140D1
:10019000B0F08039914098F08C2F0C2E000C990B08
:1001A000D89FB001D99F700D781B11249C01D29E5D
:1001B000C001D39E900D1124D6CFC1E0EDCFCFEF7B
:0601C000EBCFF894FFCF25
:00000001FF
